:020000040C00EE
:1000000000C8FF1F010200089102000891020008C9
:10001000910200089102000891020008000000000F
:100020000000000000000000000000009102000835
:1000300091020008000000009102000891020008EF
:100040009102000891020008910200089102000844
:100050009102000891020008910200089102000834
:1000600091020008000000000000000000000000F5
:1000700091020008000000009102000891020008AF
:100080009102000891020008910200089102000804
:1000900091020008910200089102000891020008F4
:1000A000910200089102000800000000000000001A
:1000B0000000000000000000000000000000000040
:1000C0000000000000000000000000000000000030
:1000D0000000000000000000000000000000000020
:1000E00000000000000000009102000891020008DA
:1000F0009102000891020008910200089102000894
:100100009102000891020008910200089102000883
:1001100000000000000000000000000000000000DF
:1001200000000000000000000000000000000000CF
:100130009102000891020008910200089102000853
:1001400000000000000000000000000000000000AF
:100150009102000891020008000000000000000069
:100160009102000891020008910200089102000823
:1001700091020008F91D0008910200089102000890
:100180009102000891020008910200089102000803
:1001900091020008910200089102000891020008F3
:1001A00091020008910200089102000891020008E3
:1001B00091020008910200089102000891020008D3
:1001C000000000000000000000000000000000002F
:1001D0000000000000000000910200080000000084
:1001E000910200089102000800000000910200083E
:1001F00000000000000000000000000000000000FF
:10020000DFF86CD01B4880471B4C1C4DAC4209DA10
:1002100021686268A368043BA2BFC858D050FAE7BF
:100220000C34F3E7164B174CA34208DA19685A68E6
:100230000020043AA4BF8850FBE70833F4E71248D3
:1002400080471248804700004420000C00C8FF1F70
:100250005C0000004420000C00C8FF1F00000000EC
:100260005CC8FF1F04000000000000200000000028
:1002700000C8FF1F9502000848020008600200083D
:100280006002000870020008CD1E0008711E000800
:10029000FEE7000098B500AF084A4FF0005314463F
:1002A0000FCB84E80F00064B064A07CA83E8070015
:1002B00001F016FA01F07EFA98BD00BFC45F00207D
:1002C000D45F00208400002080B584B000AF2F4BA5
:1002D000DB6803F48033002B3ED02D4BDB6803F04A
:1002E0000103002B02D02B4BFB6002E001F058FA17
:1002F000F860274B1B6803F00403002B20D0244B2D
:100300009B6803F070631B0E0133BB60204B9B683E
:1003100003F4FE431B0A01337B601D4B9B6803F40F
:10032000FE031B0C01333B60BB683A6802FB03F31E
:10033000FA68B2FBF3F37A6802FB03F3FB600DE0AB
:10034000134B9B6803F07F0301333B60FA683B6803
:10035000B2FBF3F3FB6001E00E4BFB600B4BDB6881
:10036000DBB20133FA68B2FBF3F3FB60074B1B69A6
:1003700003F001030133FA68B2FBF3F3FB60064AB2
:10038000FB6813601037BD4680BD00BF00460050BB
:100390001047005000366E01C05F002080B485B069
:1003A00000AFF8600B467A60FB72FB7A9B08DBB209
:1003B0001846FB7A9B08DBB21A46FB68043253F8F6
:1003C0002220FB7A03F00303DB001946F8238B405D
:1003D000DB4302EA0301FB68021D43F82210FB68BD
:1003E0005A6FFB7A5B00194603238B40DB431A40AC
:1003F000FB685A67FB68384A93420AD1FB681A6E59
:10040000FB7A012101FA03F3DB431A40FB681A6609
:1004100042E07B681B78DBB25BB2002B3CDA7B6886
:100420005A68FB7A9A40FB685A60FB7ADB08DBB2B9
:100430001846FB7ADB08DBB21A46FB68103253F829
:100440002220FB7A03F007039B00194607238B4009
:10045000DB4302EA0301FB6800F1100243F82210BB
:10046000FB7ADB08DBB21846FB7ADB08DBB21A4604
:10047000FB68103253F822207B681B7A1946FB7AFE
:1004800003F007039B0001FA03F342EA0301FB6850
:1004900000F1100243F82210FB7A9B08DBB21846E9
:1004A000FB7A9B08DBB21A46FB68043253F8222021
:1004B0007B681B781946FB7A03F00303DB0001FA23
:1004C00003F342EA0301FB68021D43F822101437CC
:1004D000BD465DF8047B7047008E024880B400AFD3
:1004E000034B1B681846BD465DF8047B704700BF90
:1004F000C05F002080B400AF034BD3F8C43018466F
:10050000BD465DF8047B70470040005080B584B064
:1005100000AF7860FFF7D8FE0B4B1B680B4AA2FBBD
:1005200003239A0C7B6802FB03F37B600023FB60D0
:1005300003E000BFFB680133FB60FA687B689A4206
:10054000F7D31037BD4680BDC05F002083DE1B435C
:1005500080B400AF034B5B681846BD465DF8047B72
:10056000704700BF7440005080B483B000AF786023
:10057000034A7B68D3600C37BD465DF8047B704747
:1005800074400050B0B584B002AF7860002000F035
:100590009BF800F025FA7B68DB79002B0AD000F08D
:1005A0005DFA00BF00F048FA034683F00103DBB2B6
:1005B000002BF7D17B685B7A184600F0FFF800BF8C
:1005C000FFF798FF0346002BFAD17B681B7A184689
:1005D00000F0E0F97B681B7C184600F00DF97B68A1
:1005E0005B7C184600F030F97B689B7C184600F075
:1005F00017F97B68DB7C184600F03AF97B689B7939
:10060000002B0AD000F062FA00BF00F087FA034620
:1006100083F00103DBB2002BF7D17B68DB78002B82
:1006200002D100F09FFA14E000F08CFA7B68998800
:100630007B68DA787B685B781D467B681B781C4694
:100640007B689B780093084611462A46234600F0B3
:1006500099FA7B68DB68B3F5803F03D14FF48030B3
:1006600000F032F8FFF730FE0837BD46B0BD00BFDE
:1006700080B485B000AF78607B681B0FFB607B683F
:1006800023F07043BB60FA6813465B0013449B0081
:100690001A46044B1344BA681A601437BD465DF815
:1006A000047B70471444005080B500AFFFF716FF7D
:1006B0000246044B5B6903F0010322FA03F3184678
:1006C00080BD00BF0046005080B483B000AF7860AA
:1006D0000649064BDB6823F480327B681343CB600A
:1006E0000C37BD465DF8047B704700BF00460050E4
:1006F00080B483B000AF78600649064B9B6923F451
:1007000080327B6813438B610C37BD465DF8047BF8
:10071000704700BF0046005080B483B000AF7860DF
:100720000649064B5B6A23F440327B6813434B62F5
:100730000C37BD465DF8047B704700BF0046005093
:1007400080B483B000AF0346FB80FB88002B08D148
:100750000A4A0A4BDB6823F4807323F00103D36059
:1007600007E0064A054BDB6843F4807343F001035E
:10077000D3600C37BD465DF8047B704710470050CE
:1007800080B483B000AF0346FB7100BF094BD3F8C0
:10079000C43003F00803002BF8D10749064BDB688F
:1007A00023F04002FB791343CB600C37BD465DF864
:1007B000047B7047004000500043005080B483B079
:1007C00000AF0346FB7100BF094BD3F8C43003F000
:1007D0000803002BF8D10749064BDB6823F08002A1
:1007E000FB791343CB600C37BD465DF8047B704743
:1007F000004000500043005080B483B000AF7860E8
:100800000649064BDB6823F0FF027B68013B13437C
:10081000CB600C37BD465DF8047B70470046005046
:1008200080B483B000AF78600649064B1B6A23F0A2
:1008300001027B68013B13430B620C37BD465DF838
:10084000047B70470046005080B483B000AF7860EE
:100850000649064B1B6923F001027B68013B1343E9
:100860000B610C37BD465DF8047B704700460050B5
:1008700080B483B000AF78600649064B5B6923F013
:1008800001027B68013B13434B610C37BD465DF8A9
:10089000047B70470046005080B483B000AF78609E
:1008A0000649064B9B6923F007027B68013B134313
:1008B0008B610C37BD465DF8047B704700460050E5
:1008C00080B483B000AF78600649064B5B6A23F0C2
:1008D000FF027B68013B13434B620C37BD465DF85A
:1008E000047B70470046005080B485B000AF78604C
:1008F0007B681B0FFB607B6823F07043BB60FA686A
:1009000013465B0013449B001A46044B1344BA6819
:100910001A601437BD465DF8047B704748460050A6
:1009200080B483B000AF78603960194A184B5B69B6
:1009300043F001035361164A154B5B6943F0100302
:10094000536113493B68013B1A027B68013B1B065C
:1009500013434B610E4A0E4B5B6943F040035361F6
:100960000B4A0B4B5B6923F010035361084A084B99
:100970005B6943F48023536100BF054B1B6903F09F
:100980000403002BF9D00C37BD465DF8047B70479B
:100990001047005080B582B000AF0346FB710F4A8C
:1009A0000E4B5B6843F480135360FB79012B0ED12F
:1009B0000A4A0A4B5B6823F4801353606420FFF7F4
:1009C000A5FD064A054B5B6843F400235360642091
:1009D000FFF79CFD0837BD4680BD00BF10470050A3
:1009E00080B400AF124B1B6803F00103002B09D148
:1009F0000F4B01225A6000BF0D4B1B6803F001032F
:100A0000002BF9D00B4B1B6803F40073002B0AD0AA
:100A1000084B4FF400729A6000BF064B1B6803F44A
:100A20000073002BF9D1BD465DF8047B704700BF11
:100A3000004200500044005080B400AF064B1B68D9
:100A400003F00803002B0CBF01230023DBB2184680
:100A5000BD465DF8047B70470043005080B500AF91
:100A60004FF40000FFF780FD174A174BDB6923F0B6
:100A70003003D36100BFFFF76BFD034603F40003AF
:100A8000002BF8D04FF40030FFF76EFD0E4B08221C
:100A90005A6000BFFFF75CFD034603F40033002BF0
:100AA000F8D04FF40020FFF75FFD074A064BDB68E4
:100AB00043F00803D36000BFFFF74AFD034603F489
:100AC0000023002BF8D080BD00430050B0B500AF2C
:100AD0000F4A0F4B5B6823F4803353600D4D0D4B71
:100AE0005B6823F4702424F0300400F059FE0246C1
:100AF000094BA3FB02231B0D013B1B0423436B602B
:100B0000034A034B5B6823F400335360B0BD00BF5E
:100B100010470050004700506BCA5F6B80B400AFB5
:100B2000074B1B6803F46073B3F5607F0CBF0123B0
:100B30000023DBB21846BD465DF8047B704700BF5A
:100B40001047005080B400AF054A054B5B6823F4A2
:100B5000803323F002035360BD465DF8047B704789
:100B60001047005080B400AF054A054B5B6843F462
:100B7000803343F002035360BD465DF8047B704749
:100B80001047005080B586B000AFBA607B60034666
:100B9000FB810B467B73FB891846FFF7D1FD7B7BFE
:100BA000012B40F08480FB89002B09D100F0F8FD77
:100BB00002464B4BA3FB02239B0C9B057B6102E08F
:100BC0004FF0C0637B617B697A6802FB03F2BB680C
:100BD000B2FBF3F37B617B69424AA2FB03231B094F
:100BE0009B0D3B61404A404B5B6843F001035360FF
:100BF0003D4A3D4B5B6843F0100353603A493A4B22
:100C00009A683A4B13407A68013A12021A433B69D8
:100C1000013B1B041A43BB68013B1B0613438B605B
:100C2000314A314B5B6843F0400353602E4A2E4BF0
:100C30005B6823F0100353602B4A2B4B5B6843F433
:100C40008023536000BF284B1B6803F00403002B74
:100C5000F9D0254A244B5B6823F00103536000BFA1
:100C6000214B1B6803F00103002BF9D17B69204A5B
:100C7000A2FB03235B099B0D3B613A6A3B699A42E5
:100C800002D2386900F038F87B695B08194AA2FB88
:100C900003235B099B0D3B613A6A3B699A4202D28E
:100CA000386900F029F8386A00F026F815E00E4996
:100CB0000D4B9B6823F07F023B6A013B13438B6023
:100CC000094A094B5B6843F00103536000BF064BC0
:100CD0001B6803F00103002BF9D01837BD4680BD17
:100CE00083DE1B43ABAAAAAA10470050FF8080F006
:100CF00089888888B7600BB680B582B000AF78600D
:100D00000749074B9B6823F4FE027B68013B1B04E9
:100D100013438B603220FFF7F9FB0837BD4680BDD7
:100D20001047005080B483B000AF78607B68D3F880
:100D3000C43103F44073002B0CBF01230023DBB24A
:100D400018460C37BD465DF8047B704780B483B00D
:100D500000AF7860084611461A460346FB700B4602
:100D6000BB7013467B70FA78BB781B0403F47F03D7
:100D70001A437B781B061A437B68C3F8C4210C37DF
:100D8000BD465DF8047B704780B483B000AF7860E7
:100D90007B681B6843F040027B681A600C37BD46D5
:100DA0005DF8047B704700BF80B483B000AF78600B
:100DB0007B681B6823F040027B681A600C37BD46D5
:100DC0005DF8047B704700BF80B483B000AF7860EB
:100DD00039603A687B68934238BF134618460C372F
:100DE000BD465DF8047B704780B483B000AF786087
:100DF00039603A687B68934228BF134618460C371F
:100E0000BD465DF8047B704780B588B000AF786060
:100E100039603B681B683A685268B3FBF2F102FB29
:100E200001F29B1A002B40F08E800023BB613B68CF
:100E30001A683B685B68B2FBF3F3BB6019237B6104
:100E400000233B610023FB604BE0BB687A69B3FB86
:100E5000F2F2796901FB02F29B1A002B3ED10023CA
:100E6000BB61BA687B69B2FBF3F3FB61FB69002BE2
:100E700034D0FB69B3F5007F30D8FB693F2B0AD92A
:100E8000FB6903F00703002B03D07B69013B7B6107
:100E900027E00123BB617B69013B3A68128902FBB1
:100EA00003F32B4AA2FB03235B0B3B617A693B698B
:100EB000D31A013BFB603B69022B0FD93B690F2B17
:100EC0000CD8FB68012B09D9FB68062B06D83B68B8
:100ED0005B891A46FB689A4200D805E07B69013BB2
:100EE0007B617B69072BB0D87B69072B2BD978688E
:100EF000FFF74AFFFB68013B1B0303F4E0423B683A
:100F00005B89013B9B01DBB21A433B69013B1B023E
:100F100003F4706342EA0301BA6913465B001344A9
:100F20001A46FB69D340013B03F03F0341EA030249
:100F3000BB69DB039BB21A437B681A617868FFF7D1
:100F400033FF002300E0012318462037BD4680BD53
:100F50005917B7D180B582B000AF78600B46FB70EF
:100F60001346BB7000BF7868FFF7DCFE034683F0D2
:100F70000103DBB2002BF6D1FB780133DBB2BA7888
:100F800078680221FFF7E2FE0837BD4680BD00BF4A
:100F900080B582B000AF78600A48FFF7A5FC094829
:100FA000FFF766FB7B681B6823F001027B681A6011
:100FB00000BF7B681B6803F00203002BF9D10837E0
:100FC000BD4680BD1000001080B483B000AF7860D3
:100FD0000B46FB700C37BD465DF8047B704700BFC5
:100FE00080B584B000AF7860FFF75EFBF860FB6807
:100FF00018461037BD4680BD80B588B000AFF86098
:101000000B467A60FB72F868FFF7C2FFFB7AF8685C
:101010001946FFF7D9FFF868FFF7E2FFF861FA69B0
:101020007B68B2FBF3F3C3F5806300201946FFF73A
:10103000CBFE0346184640F2FF31FFF7D5FEB861FC
:10104000BB69C3F58063FA69B2FBF3F37B61FB68AC
:10105000DB6823F4434323F0FF03FA68D360FB68A3
:10106000DA68BB69134343F48042FB68DA607B694A
:1010700018462037BD4680BD80B586B000AF786089
:101080007B681B6803F13843A3F5A8335B097B61D8
:101090007B695B095A037B6903F01F031B0213433F
:1010A0003B617B681B687A681268926822F47F4211
:1010B0009A607B681B687A68126891683A690A438B
:1010C0009A607B68DB7903F02003DBB2002B07D04A
:1010D0007B68DB7903F02003DBB2002B00D160E0FA
:1010E0007B681B7E002B04D07B681B7E012B00D00D
:1010F00057E07B681B682022DA617B68DB7903F0AC
:101100002003DBB2002B28D17B685B68FB60FB68A7
:1011100003F06043FB607B685B68C3F31C039B04C4
:101120001A46FB681343FB607B681B68FA689A6188
:101130007B689B68FB60FB6803F06043FB607B6837
:101140009B68C3F31C039B041A46FB681343FB60B4
:101150007B681B68FA68DA6009E07B681B687A685C
:1011600052689A617B681B687A689268DA607B686B
:101170001B7E012B0CD1786800F01AF87B681B6885
:101180004FF00062DA617B681B68074ADA6108E0A9
:101190007B681B684FF40062DA617B681B68034A56
:1011A000DA611837BD4680BDC00020064006A000A9
:1011B00080B485B000AF78600323FB737B681B7E2F
:1011C000012B22D17B681B682022DA617B681B68B7
:1011D0007A681268126822F070617A68127B1206CF
:1011E00002F070620A431A607B681B687A681269B1
:1011F0001A617B681B687A6852695A617B681B6850
:10120000064ADA610023FB7301E00323FB73FB7BD7
:1012100018461437BD465DF8047B7047400028002F
:1012200080B487B000AF78600123FB757B681B68D2
:10123000DB6903F020035B093B617B681B68DB69AA
:1012400003F480731B0AFB603B69002B02D104236B
:10125000FB750CE0FB68012B02D10223FB7506E055
:101260007B681B684FF0E062DA610023FB75FB7D51
:1012700018461C37BD465DF8047B704780B487B0C4
:1012800000AF78600123FB750023BB7500237B75DD
:101290007B681B68DB6903F40063DB0A3B617B68E6
:1012A0001B68DB6903F004039B08FB603B69002BB0
:1012B00002D00323FB75A7E0FB68012B02D10223B8
:1012C000FB75A1E07B681B680822DA617B681B68FC
:1012D0009B6903F000535B0F002B40D17A68D379F0
:1012E0006FF34513D3717B681B689A694A4B1340AF
:1012F0009B0C23F060417A68536861F31C035360D0
:101300007B681B68DB6803F000535B0FDBB203F004
:101310000103D9B27A68D37A61F34513D3727B683B
:10132000DB7A03F02003DBB2002B0DD07B681B6857
:10133000DA68394B13409B0C23F060417A6893685C
:1013400061F31C03936032E07B681B68DB6823F069
:1013500060417A68936861F31C03936027E07A68C0
:10136000D37943F02003D3717B681B689B6923F01A
:1013700060417A68536861F31C0353607B681B68A3
:10138000DB6823F060417A68936861F31C03936023
:101390007B681B68DB6803F000535B0FDBB203F074
:1013A0000103D9B27A68D37A61F34513D3727B68AB
:1013B0001B681B6803F070631B0EDAB27B681A733C
:1013C0007B681B681A697B681A617B681B685A69AD
:1013D0007B685A617B681B68DB6903F004039B0828
:1013E000BB757B681B68DB6903F00803DB087B7552
:1013F000BB7D002B03D07B7D002B7FF463AF7B682C
:1014000000221A760023FB75FB7D18461C37BD466B
:101410005DF8047B704700BF0000FC1F80B483B000
:1014200000AF786039603B68B3F5800F06D07B6809
:101430001A683B681A437B681A6005E07B689A6902
:101440003B681A437B689A610C37BD465DF8047BA4
:10145000704700BF80B483B000AF78600B46FB706C
:101460001346BB707B685A6FFB785B0019460323F9
:101470008B40DB431A407B685A677B685A6FBB78A6
:10148000F97849008B401A437B685A670C37BD4690
:101490005DF8047B704700BF80B400AFBD465DF8C7
:1014A000047B704780B400AF044BDB6803F4E06357
:1014B0001B0A1846BD465DF8047B704700ED00E04E
:1014C00080B483B000AF0346FB7197F90730002B5F
:1014D0000BDB084997F907305B09FA7902F01F0224
:1014E000012000FA02F241F823200C37BD465DF8D6
:1014F000047B704700E100E080B483B000AF034696
:101500003960FB7197F90730002B0ADB0D4997F919
:1015100007303A68D2B29200D2B20B4483F800236B
:101520000AE00949FB7903F00F03043B3A68D2B2A1
:101530009200D2B20B441A760C37BD465DF8047B9C
:10154000704700BF00E100E000ED00E080B489B02A
:1015500000AFF860B9607A60FB6803F00703FB61D5
:10156000FB69C3F10703062B28BF0623BB61FB6998
:101570000633062B02D9FB69013B00E000237B61A7
:10158000BB69012202FA03F35A1EBB681A407B6949
:101590009A407B69012101FA03F3591E7B680B40D5
:1015A000134318462437BD465DF8047B704700BFDF
:1015B00080B582B000AF78607B681B785BB218465C
:1015C000FFF77EFF0837BD4680BD00BF90B583B0F2
:1015D00000AF78607B681C78FFF764FF01467B688A
:1015E0005B781A467B689B78084611461A46FFF7D7
:1015F000ADFF024663B218461146FFF77DFF7B68D8
:10160000DB78002B02D07868FFF7D2FF0023184662
:101610000C37BD4690BD00BF80B584B000AF786088
:101620000023FB737B685B7A83F00103DBB2002B42
:101630000DD07B685A687B681B68104601211A46EA
:10164000FFF7DAFC7B6801225A720023FB73FB7BF5
:1016500018461037BD4680BD80B582B000AF7860B7
:101660007B6819687B681A7C7B68043308461146DE
:101670001A46FEF793FE7B6819687B681A7C7B68C4
:101680005B7C084611461A46FFF7E4FE0023184625
:101690000837BD4680BD00BF80B485B000AF78601C
:1016A0007B6803F00703FB600C4BDB68BB60BA6828
:1016B0004FF6FF031340BB60FB681A02BB6813437D
:1016C00043F0BF6343F40033BB60044ABB68D3609C
:1016D0001437BD465DF8047B704700BF00ED00E0A5
:1016E00080B582B000AF0120FFF7D6FF72B6214B64
:1016F000214A9A60BFF34F8F62B61E4A1D4BD3F842
:10170000883043F47003C2F888301C4B03F58053D3
:1017100014331B687B607B6823F00F037B607B685E
:1017200043F002037B60154B03F5805314337A6852
:101730001A60104A0F4B5B6923F0100353610D4A86
:101740000C4B5B6923F0080353610A4A094B5B6A3F
:1017500023F480335362074A064B5B6A23F4003359
:101760005362044A034B5B6A23F4802353620837B5
:10177000BD4680BD00ED00E00000000800100058EC
:1017800080B485B000AF78600023FB737B680122D2
:101790001A70FB7B18461437BD465DF8047B704712
:1017A00080B400AF024B1846BD465DF8047B70471D
:1017B000001BB700B0B586B000AF104B3C1D1D46F6
:1017C0000FCD0FC42B6823603B1D1846FEF7DAFED1
:1017D0000020FEF7D5FF0020FEF78AFF0420FFF768
:1017E0005BF801202021FFF79BF80020FEF794FF13
:1017F0000120FFF765F81837BD46B0BD441F00084B
:1018000080B485B000AFF8600B467A60FB72FB686D
:101810009A68FB7A072101FA03F3DB431A40FB7A4B
:10182000796801FA03F31A43FB689A601437BD46DE
:101830005DF8047B704700BF80B483B000AF786070
:101840000B46FB707B68DB6823F00702FB7803F034
:1018500007031A437B68DA600C37BD465DF8047BEA
:10186000704700BF80B483B000AF78607B68DB68EE
:1018700043F480727B68DA600C37BD465DF8047B08
:10188000704700BF80B483B000AF78607B685B684E
:1018900018460C37BD465DF8047B704780B483B0B2
:1018A00000AF78607B681B6843F040027B681A6079
:1018B0000C37BD465DF8047B704700BF80B483B031
:1018C00000AF78607B681B6823F040027B681A6079
:1018D0000C37BD465DF8047B704700BF80B483B011
:1018E00000AF78607B681B6843F001027B681A6078
:1018F0000C37BD465DF8047B704700BF80B483B0F1
:1019000000AF78607B681B6823F001027B681A6077
:101910000C37BD465DF8047B704700BF80B483B0D0
:1019200000AF78607B681B6823F080027B681A60D8
:101930000C37BD465DF8047B704700BF80B485B0AE
:1019400000AFF8600B467A60FB72FB681B68FA68B0
:1019500012689168FA7A072000FA02F2D243114025
:10196000FA7A786800FA02F20A439A601437BD46A0
:101970005DF8047B704700BF80B483B000AF78602F
:101980007B681B68DB6918460C37BD465DF8047B35
:10199000704700BF80B483B000AF786039607B6867
:1019A0001B687A68126811683A680A431A600C3733
:1019B000BD465DF8047B704780B582B000AF7860AB
:1019C0007B681B6818464FF40031FFF7E3FF0837C8
:1019D000BD4680BD80B582B000AF78607B681B6873
:1019E00018464FF48031FFF7D5FF0837BD4680BD5C
:1019F00080B584B000AF78600023FB60786800F0A9
:101A000031F87B6893F8A430002B03D0FB6843F0D7
:101A10000203FB607B6893F8A330002B03D0FB68C4
:101A200043F00403FB607B6893F8A530002B03D0E0
:101A3000FB6843F00803FB607B685B681846F96845
:101A4000FFF7ECFC7B6893F8A630002B06D07B6890
:101A50005B6818464FF48001FFF7E0FC1037BD4685
:101A600080BD00BF80B582B000AF78607B685A68E7
:101A70007B68D3F88C301B78104600211A46FFF79C
:101A8000BFFE7B685A687B68D3F88C305B78104661
:101A900004211A46FFF7B4FE7B685A687B68D3F8C6
:101AA0008C309B78104608211A46FFF7A9FE7B6808
:101AB0005A687B68D3F88C30DB7810460C211A46C4
:101AC000FFF79EFE0837BD4680BD00BF80B582B0DF
:101AD00000AF78607B681B681846FFF7CDFA7B681B
:101AE000DB79002B0BD07B681A687B685B7910462A
:101AF00004211A46FFF722FF7868FFF75DFF7B6835
:101B00001B7A002B0BD07B681A687B689B79104688
:101B100000211A46FFF712FF7868FFF75BFF0837CE
:101B2000BD4680BD80B584B000AF78600023FB73F4
:101B30007B681B681846FFF773FB0346FB73FB7B50
:101B400018461037BD4680BD80B584B000AF7860C0
:101B50000023FB737B681B681846FFF78FFB034667
:101B6000FB73FB7B18461037BD4680BD80B584B043
:101B700000AF78607B681B681846FFF7FDFEF860D1
:101B8000FB6818461037BD4680BD00BF80B584B0E5
:101B900000AF78607B685B68FB60F868FFF772FEF7
:101BA000B860BB6818461037BD4680BD80B586B0AA
:101BB00000AF78600023FB757B68D3F89030FB6042
:101BC0007B681B681846FFF727FD0346FB75FB7D06
:101BD000002B40F087807B685A687B689B681046C2
:101BE0001946FFF711F90346002B78D17B685B6833
:101BF0001846FFF753FE7B685B681846FFF76EFEDA
:101C00007B685B681846FFF789FE7B6893F8A7300E
:101C1000002B05D07B685B681846FFF723FE18E0B1
:101C20007B68D3F8983019687B68D3F898301A79B4
:101C30007B68D3F89C30084611461A46FEF7AEFB87
:101C40007B685A687B6893F8A03010461946FFF706
:101C5000F3FD7868FFF7CCFE00233B6119E07A685A
:101C60003B6902339B0013445B68BB607B681B6865
:101C700059687B6893F8A120BB681B790846114618
:101C80001A46FFF767F9B868FFF720FF3B69013391
:101C90003B617B6893F8A2301A463B699A42DED8D2
:101CA0007B685B681846FFF709FE7B685B6818462F
:101CB000FFF724FE7B6893F8A73083F00103DBB2C3
:101CC000002B11D0FB681968FB681A797B68D3F880
:101CD0009430084611461A46FEF760FB04E00123E3
:101CE000FB7501E00123FB75FB7D18461837BD46E7
:101CF00080BD00BF80B582B000AF0023FB711548E6
:101D0000FFF73EFD0346FB71FB79002B04D112481F
:101D1000FFF7A2FC0346FB71FB79002B04D10F48AF
:101D2000FFF79AFC0346FB71FB79002B04D10C48AA
:101D3000FFF73CFF0346FB71FB79002B04D10948F8
:101D4000FFF744FC0346FB71FB7918460837BD4694
:101D500080BD00BF5CC8FF1F1C1F0008301F0008AB
:101D60009C1F0008181F000880B483B000AF786083
:101D70000B46FB70FB784FF001129A407B685A606B
:101D80000C37BD465DF8047B704700BF80B483B05C
:101D900000AF78600B46FB707B685A6AFB7822FACA
:101DA00003F303F0010318460C37BD465DF8047BCE
:101DB000704700BF80B582B000AF78607B681A685A
:101DC0007B681B7C10461946FFF7CEFF0837BD46DF
:101DD00080BD00BF80B582B000AF78607B681A68B4
:101DE0007B681B7C10461946FFF7D0FF0346184658
:101DF0000837BD4680BD00BF80B582B000AF18482F
:101E0000FFF7C4FE034603F00703002B24D1154857
:101E1000FFF7ACFE034603F00103002B1CD0114872
:101E2000FFF792FE0F4B1B681B7C7B607B68012BCE
:101E300012D10D48FFF7BEFF0C4B1B6803221A742A
:101E40000A4B1B681846FFF7B3F903463B60074887
:101E5000FFF768FE03463B600837BD4680BD00BF04
:101E60009C1F0008841F00081C1F0008901F00080A
:101E700080B582B000AFFFF73DFF1148FFF7AAFF22
:101E80000246104B1B689A4219D00D48FFF7A2FF7B
:101E900002460C4B1A600B4B1B68002B0FD10A4BF0
:101EA0001B6801221A74084B1B681846FFF780F95B
:101EB00003467B600448FFF735FE03467B60DCE7A2
:101EC000301F000858C8FF1F901F000870B50E4B48
:101ED0000E4CE41AA41000251E46A54204D056F864
:101EE000253098470135F8E7FFF7D6FA084C094B3B
:101EF000E41AA41000251E46A54204D056F8253049
:101F000098470135F8E770BD5CC8FF1F5CC8FF1F2C
:101F10005CC8FF1F5CC8FF1F4D3F000100800248E6
:101F2000800000000000010000000000010000002F
:101F300000810248000000000000000000000000D6
:101F40000F00000050030401000001000000000029
:101F500000000100010101010082024800000000B0
:101F6000880000000100000002000000008E02480E
:101F7000030000000000000000000000000000005E
:101F80000000000018C8FF1F23000100010000002E
:101F900038C8FF1F220000000000000000C8FF1F1B
:101FA000004201480CC8FF1F841F0008901F000852
:101FB0000000000000000000000000000000000021
:101FC0000000000000000000000000000000000011
:101FD0000000000000000000000000000000000001
:101FE00000000000000000000000000000000000F1
:101FF00000000000000000000000000000000000E1
:1020000000000000000000000000000000000000D0
:1020100000000000000000000000000000000000C0
:102020000000000000000000801F0008581F00088A
:10203000601F00086C1F0008741F000801000200E8
:04204000000000009C
:1020440000B4C404004001480000000000B4C4040B
:10205400A0860100401F010060540148FF07008072
:10206400FF0700200800000000000000000000003E
:10207400000000000000000040540148FF070080F9
:10208400FF0700200800000000000000000000001E
:0C2094000100000000000000010000003E
:0400000508000201EC
:00000001FF
