:020000040C00EE
:1000000000C8FF1F010200089102000891020008C9
:10001000910200089102000891020008000000000F
:100020000000000000000000000000009102000835
:1000300091020008000000009102000891020008EF
:100040009102000891020008910200089102000844
:100050009102000891020008910200089102000834
:1000600091020008000000000000000000000000F5
:1000700091020008000000009102000891020008AF
:100080009102000891020008910200089102000804
:1000900091020008910200089102000891020008F4
:1000A000910200089102000800000000000000001A
:1000B0000000000000000000000000000000000040
:1000C0000000000000000000000000000000000030
:1000D0000000000000000000000000000000000020
:1000E00000000000000000009102000891020008DA
:1000F0009102000891020008910200089102000894
:1001000091020008112900089102000891020008DC
:1001100000000000000000000000000000000000DF
:1001200000000000000000000000000000000000CF
:100130009102000891020008910200089102000853
:1001400000000000000000000000000000000000AF
:100150009102000891020008000000000000000069
:100160009102000891020008910200089102000823
:10017000910200088D2700089102000891020008F2
:100180009102000891020008910200089102000803
:1001900091020008910200089102000891020008F3
:1001A00091020008910200089102000891020008E3
:1001B00091020008910200089102000891020008D3
:1001C000000000000000000000000000000000002F
:1001D0000000000000000000910200080000000084
:1001E000910200089102000800000000910200083E
:1001F00000000000000000000000000000000000FF
:10020000DFF86CD01B4880471B4C1C4DAC4209DA10
:1002100021686268A368043BA2BFC858D050FAE7BF
:100220000C34F3E7164B174CA34208DA19685A68E6
:100230000020043AA4BF8850FBE70833F4E71248D3
:1002400080471248804700005C39000C00C8FF1F3F
:10025000DC0000005C39000C00C8FF1F000000003B
:10026000DCC8FF1F4000000000000020000000006C
:1002700000C8FF1F9502000848020008600200083D
:100280006002000870020008693700082D29000884
:10029000FEE7000098B500AF084A4FF0005314463F
:1002A0000FCB84E80F00064B064A07CA83E8070015
:1002B00001F04EFE01F0B6FE98BD00BFC45F002005
:1002C000D45F00208400002080B584B000AF2F4BA5
:1002D000DB6803F48033002B3ED02D4BDB6803F04A
:1002E0000103002B02D02B4BFB6002E001F090FEDB
:1002F000F860274B1B6803F00403002B20D0244B2D
:100300009B6803F070631B0E0133BB60204B9B683E
:1003100003F4FE431B0A01337B601D4B9B6803F40F
:10032000FE031B0C01333B60BB683A6802FB03F31E
:10033000FA68B2FBF3F37A6802FB03F3FB600DE0AB
:10034000134B9B6803F07F0301333B60FA683B6803
:10035000B2FBF3F3FB6001E00E4BFB600B4BDB6881
:10036000DBB20133FA68B2FBF3F3FB60074B1B69A6
:1003700003F001030133FA68B2FBF3F3FB60064AB2
:10038000FB6813601037BD4680BD00BF00460050BB
:100390001047005000366E01C05F002080B485B069
:1003A00000AFF8600B467A60FB72FB7A9B08DBB209
:1003B0001846FB7A9B08DBB21A46FB68043253F8F6
:1003C0002220FB7A03F00303DB001946F8238B405D
:1003D000DB4302EA0301FB68021D43F82210FB68BD
:1003E0005A6FFB7A5B00194603238B40DB431A40AC
:1003F000FB685A67FB68384A93420AD1FB681A6E59
:10040000FB7A012101FA03F3DB431A40FB681A6609
:1004100042E07B681B78DBB25BB2002B3CDA7B6886
:100420005A68FB7A9A40FB685A60FB7ADB08DBB2B9
:100430001846FB7ADB08DBB21A46FB68103253F829
:100440002220FB7A03F007039B00194607238B4009
:10045000DB4302EA0301FB6800F1100243F82210BB
:10046000FB7ADB08DBB21846FB7ADB08DBB21A4604
:10047000FB68103253F822207B681B7A1946FB7AFE
:1004800003F007039B0001FA03F342EA0301FB6850
:1004900000F1100243F82210FB7A9B08DBB21846E9
:1004A000FB7A9B08DBB21A46FB68043253F8222021
:1004B0007B681B781946FB7A03F00303DB0001FA23
:1004C00003F342EA0301FB68021D43F822101437CC
:1004D000BD465DF8047B7047008E024880B400AFD3
:1004E000034B1B681846BD465DF8047B704700BF90
:1004F000C05F002080B400AF034BD3F8C43018466F
:10050000BD465DF8047B70470040005080B584B064
:1005100000AF7860FFF7D8FE0B4B1B680B4AA2FBBD
:1005200003239A0C7B6802FB03F37B600023FB60D0
:1005300003E000BFFB680133FB60FA687B689A4206
:10054000F7D31037BD4680BDC05F002083DE1B435C
:1005500080B400AF034B5B681846BD465DF8047B72
:10056000704700BF7440005080B483B000AF786023
:10057000034A7B68D3600C37BD465DF8047B704747
:1005800074400050B0B584B002AF7860002000F035
:100590009BF800F035FA7B68DB79002B0AD000F07D
:1005A0006DFA00BF00F058FA034683F00103DBB296
:1005B000002BF7D17B685B7A184600F0FFF800BF8C
:1005C000FFF798FF0346002BFAD17B681B7A184689
:1005D00000F0F0F97B681B7C184600F00DF97B6891
:1005E0005B7C184600F030F97B689B7C184600F075
:1005F00017F97B68DB7C184600F03AF97B689B7939
:10060000002B0AD000F072FA00BF00F097FA034600
:1006100083F00103DBB2002BF7D17B68DB78002B82
:1006200002D100F0AFFA14E000F09CFA7B689988E0
:100630007B68DA787B685B781D467B681B781C4694
:100640007B689B780093084611462A46234600F0B3
:10065000A9FA7B68DB68B3F5803F03D14FF48030A3
:1006600000F032F8FFF730FE0837BD46B0BD00BFDE
:1006700080B485B000AF78607B681B0FFB607B683F
:1006800023F07043BB60FA6813465B0013449B0081
:100690001A46044B1344BA681A601437BD465DF815
:1006A000047B70471444005080B500AFFFF716FF7D
:1006B0000246044B5B6903F0010322FA03F3184678
:1006C00080BD00BF0046005080B483B000AF7860AA
:1006D0000649064BDB6823F480327B681343CB600A
:1006E0000C37BD465DF8047B704700BF00460050E4
:1006F00080B483B000AF78600649064B9B6923F451
:1007000080327B6813438B610C37BD465DF8047BF8
:10071000704700BF0046005080B483B000AF7860DF
:100720000649064B5B6A23F440327B6813434B62F5
:100730000C37BD465DF8047B704700BF0046005093
:1007400080B483B000AF0346FB80FB88002B08D148
:100750000A4A0A4BDB6823F4807323F00103D36059
:1007600007E0064A054BDB6843F4807343F001035E
:10077000D3600C37BD465DF8047B704710470050CE
:1007800080B483B000AF0346FB7100BF094BD3F8C0
:10079000C43003F00803002BF8D10749064BDB688F
:1007A00023F04002FB791343CB600C37BD465DF864
:1007B000047B7047004000500043005080B483B079
:1007C00000AF0346FB7100BF094BD3F8C43003F000
:1007D0000803002BF8D10749064BDB6823F08002A1
:1007E000FB791343CB600C37BD465DF8047B704743
:1007F000004000500043005080B483B000AF7860E8
:100800000649064BDB6823F0FF027B68013B13437C
:10081000CB600C37BD465DF8047B70470046005046
:1008200080B483B000AF78600649064B1B6A23F0A2
:1008300001027B68013B13430B620C37BD465DF838
:10084000047B70470046005080B483B000AF7860EE
:100850000649064B1B6923F001027B68013B1343E9
:100860000B610C37BD465DF8047B704700460050B5
:1008700080B483B000AF78600649064B5B6923F013
:1008800001027B68013B13434B610C37BD465DF8A9
:10089000047B70470046005080B483B000AF78609E
:1008A0000649064B9B6923F007027B68013B134313
:1008B0008B610C37BD465DF8047B704700460050E5
:1008C00080B483B000AF78600649064B5B6A23F0C2
:1008D000FF027B68013B13434B620C37BD465DF85A
:1008E000047B70470046005080B483B000AF0346DD
:1008F000FB71044AFB7953600C37BD465DF8047BFD
:10090000704700BF0046005080B485B000AF7860EB
:100910007B681B0FFB607B6823F07043BB60FA6849
:1009200013465B0013449B001A46044B1344BA68F9
:100930001A601437BD465DF8047B70474846005086
:1009400080B483B000AF78603960194A184B5B6996
:1009500043F001035361164A154B5B6943F01003E2
:10096000536113493B68013B1A027B68013B1B063C
:1009700013434B610E4A0E4B5B6943F040035361D6
:100980000B4A0B4B5B6923F010035361084A084B79
:100990005B6943F48023536100BF054B1B6903F07F
:1009A0000403002BF9D00C37BD465DF8047B70477B
:1009B0001047005080B582B000AF0346FB710F4A6C
:1009C0000E4B5B6843F480135360FB79012B0ED10F
:1009D0000A4A0A4B5B6823F4801353606420FFF7D4
:1009E00095FD064A054B5B6843F400235360642081
:1009F000FFF78CFD0837BD4680BD00BF1047005093
:100A000080B400AF124B1B6803F00103002B09D127
:100A10000F4B01225A6000BF0D4B1B6803F001030E
:100A2000002BF9D00B4B1B6803F40073002B0AD08A
:100A3000084B4FF400729A6000BF064B1B6803F42A
:100A40000073002BF9D1BD465DF8047B704700BFF1
:100A5000004200500044005080B400AF064B1B68B9
:100A600003F00803002B0CBF01230023DBB2184660
:100A7000BD465DF8047B70470043005080B500AF71
:100A80004FF40000FFF770FD174A174BDB6923F0A6
:100A90003003D36100BFFFF75BFD034603F400039F
:100AA000002BF8D04FF40030FFF75EFD0E4B08220C
:100AB0005A6000BFFFF74CFD034603F40033002BE0
:100AC000F8D04FF40020FFF74FFD074A064BDB68D4
:100AD00043F00803D36000BFFFF73AFD034603F479
:100AE0000023002BF8D080BD00430050B0B500AF0C
:100AF0000F4A0F4B5B6823F4803353600D4D0D4B51
:100B00005B6823F4702424F0300401F081FA02467B
:100B1000094BA3FB02231B0D013B1B0423436B600A
:100B2000034A034B5B6823F400335360B0BD00BF3E
:100B300010470050004700506BCA5F6B80B400AF95
:100B4000074B1B6803F46073B3F5607F0CBF012390
:100B50000023DBB21846BD465DF8047B704700BF3A
:100B60001047005080B400AF054A054B5B6823F482
:100B7000803323F002035360BD465DF8047B704769
:100B80001047005080B400AF054A054B5B6843F442
:100B9000803343F002035360BD465DF8047B704729
:100BA0001047005080B586B000AFBA607B60034646
:100BB000FB810B467B73FB891846FFF7C1FD7B7BEE
:100BC000012B40F08480FB89002B09D101F020FA31
:100BD00002464B4BA3FB02239B0C9B057B6102E06F
:100BE0004FF0C0637B617B697A6802FB03F2BB68EC
:100BF000B2FBF3F37B617B69424AA2FB03231B092F
:100C00009B0D3B61404A404B5B6843F001035360DE
:100C10003D4A3D4B5B6843F0100353603A493A4B01
:100C20009A683A4B13407A68013A12021A433B69B8
:100C3000013B1B041A43BB68013B1B0613438B603B
:100C4000314A314B5B6843F0400353602E4A2E4BD0
:100C50005B6823F0100353602B4A2B4B5B6843F413
:100C60008023536000BF284B1B6803F00403002B54
:100C7000F9D0254A244B5B6823F00103536000BF81
:100C8000214B1B6803F00103002BF9D17B69204A3B
:100C9000A2FB03235B099B0D3B613A6A3B699A42C5
:100CA00002D2386900F038F87B695B08194AA2FB68
:100CB00003235B099B0D3B613A6A3B699A4202D26E
:100CC000386900F029F8386A00F026F815E00E4976
:100CD0000D4B9B6823F07F023B6A013B13438B6003
:100CE000094A094B5B6843F00103536000BF064BA0
:100CF0001B6803F00103002BF9D01837BD4680BDF7
:100D000083DE1B43ABAAAAAA10470050FF8080F0E5
:100D100089888888B7600BB680B582B000AF7860EC
:100D20000749074B9B6823F4FE027B68013B1B04C9
:100D300013438B603220FFF7E9FB0837BD4680BDC7
:100D40001047005080B483B000AF78607B68D3F860
:100D5000C43103F44073002B0CBF01230023DBB22A
:100D600018460C37BD465DF8047B704780B483B0ED
:100D700000AF7860084611461A460346FB700B46E2
:100D8000BB7013467B70FA78BB781B0403F47F03B7
:100D90001A437B781B061A437B68C3F8C4210C37BF
:100DA000BD465DF8047B704780B483B000AF7860C7
:100DB0007B681B6843F040027B681A600C37BD46B5
:100DC0005DF8047B704700BF80B483B000AF7860EB
:100DD0007B681B6823F040027B681A600C37BD46B5
:100DE0005DF8047B704700BF80B483B000AF7860CB
:100DF00039603A687B68934238BF134618460C370F
:100E0000BD465DF8047B704780B483B000AF786066
:100E100039603A687B68934228BF134618460C37FE
:100E2000BD465DF8047B704780B588B000AF786040
:100E300039603B681B683A685268B3FBF2F102FB09
:100E400001F29B1A002B40F08E800023BB613B68AF
:100E50001A683B685B68B2FBF3F3BB6019237B61E4
:100E600000233B610023FB604BE0BB687A69B3FB66
:100E7000F2F2796901FB02F29B1A002B3ED10023AA
:100E8000BB61BA687B69B2FBF3F3FB61FB69002BC2
:100E900034D0FB69B3F5007F30D8FB693F2B0AD90A
:100EA000FB6903F00703002B03D07B69013B7B61E7
:100EB00027E00123BB617B69013B3A68128902FB91
:100EC00003F32B4AA2FB03235B0B3B617A693B696B
:100ED000D31A013BFB603B69022B0FD93B690F2BF7
:100EE0000CD8FB68012B09D9FB68062B06D83B6898
:100EF0005B891A46FB689A4200D805E07B69013B92
:100F00007B617B69072BB0D87B69072B2BD978686D
:100F1000FFF74AFFFB68013B1B0303F4E0423B6819
:100F20005B89013B9B01DBB21A433B69013B1B021E
:100F300003F4706342EA0301BA6913465B00134489
:100F40001A46FB69D340013B03F03F0341EA030229
:100F5000BB69DB039BB21A437B681A617868FFF7B1
:100F600033FF002300E0012318462037BD4680BD33
:100F70005917B7D180B582B000AF78600B46FB70CF
:100F80001346BB7000BF7868FFF7DCFE034683F0B2
:100F90000103DBB2002BF6D1FB780133DBB2BA7868
:100FA00078680221FFF7E2FE0837BD4680BD00BF2A
:100FB00080B582B000AF78600A48FFF7A5FC094809
:100FC000FFF756FB7B681B6823F001027B681A6001
:100FD00000BF7B681B6803F00203002BF9D10837C0
:100FE000BD4680BD1000001080B483B000AF7860B3
:100FF0000B46FB700C37BD465DF8047B704700BFA5
:1010000080B584B000AF7860FFF74EFBF860FB68F6
:1010100018461037BD4680BD80B588B000AFF86077
:101020000B467A60FB72F868FFF7C2FFFB7AF8683C
:101030001946FFF7D9FFF868FFF7E2FFF861FA6990
:101040007B68B2FBF3F3C3F5806300201946FFF71A
:10105000CBFE0346184640F2FF31FFF7D5FEB861DC
:10106000BB69C3F58063FA69B2FBF3F37B61FB688C
:10107000DB6823F4434323F0FF03FA68D360FB6883
:10108000DA68BB69134343F48042FB68DA607B692A
:1010900018462037BD4680BD80B586B000AF786069
:1010A0007B681B6803F13843A3F5A8335B097B61B8
:1010B0007B695B095A037B6903F01F031B0213431F
:1010C0003B617B681B687A681268926822F47F42F1
:1010D0009A607B681B687A68126891683A690A436B
:1010E0009A607B68DB7903F02003DBB2002B07D02A
:1010F0007B68DB7903F02003DBB2002B00D160E0DA
:101100007B681B7E002B04D07B681B7E012B00D0EC
:1011100057E07B681B682022DA617B68DB7903F08B
:101120002003DBB2002B28D17B685B68FB60FB6887
:1011300003F06043FB607B685B68C3F31C039B04A4
:101140001A46FB681343FB607B681B68FA689A6168
:101150007B689B68FB60FB6803F06043FB607B6817
:101160009B68C3F31C039B041A46FB681343FB6094
:101170007B681B68FA68DA6009E07B681B687A683C
:1011800052689A617B681B687A689268DA607B684B
:101190001B7E012B0CD1786800F01AF87B681B6865
:1011A0004FF00062DA617B681B68074ADA6108E089
:1011B0007B681B684FF40062DA617B681B68034A36
:1011C000DA611837BD4680BDC00020064006A00089
:1011D00080B485B000AF78600323FB737B681B7E0F
:1011E000012B22D17B681B682022DA617B681B6897
:1011F0007A681268126822F070617A68127B1206AF
:1012000002F070620A431A607B681B687A68126990
:101210001A617B681B687A6852695A617B681B682F
:10122000064ADA610023FB7301E00323FB73FB7BB7
:1012300018461437BD465DF8047B7047400028000F
:1012400080B487B000AF78600123FB757B681B68B2
:10125000DB6903F020035B093B617B681B68DB698A
:1012600003F480731B0AFB603B69002B02D104234B
:10127000FB750CE0FB68012B02D10223FB7506E035
:101280007B681B684FF0E062DA610023FB75FB7D31
:1012900018461C37BD465DF8047B704780B487B0A4
:1012A00000AF78600123FB750023BB7500237B75BD
:1012B0007B681B68DB6903F40063DB0A3B617B68C6
:1012C0001B68DB6903F004039B08FB603B69002B90
:1012D00002D00323FB75A7E0FB68012B02D1022398
:1012E000FB75A1E07B681B680822DA617B681B68DC
:1012F0009B6903F000535B0F002B40D17A68D379D0
:101300006FF34513D3717B681B689A694A4B13408E
:101310009B0C23F060417A68536861F31C035360AF
:101320007B681B68DB6803F000535B0FDBB203F0E4
:101330000103D9B27A68D37A61F34513D3727B681B
:10134000DB7A03F02003DBB2002B0DD07B681B6837
:10135000DA68394B13409B0C23F060417A6893683C
:1013600061F31C03936032E07B681B68DB6823F049
:1013700060417A68936861F31C03936027E07A68A0
:10138000D37943F02003D3717B681B689B6923F0FA
:1013900060417A68536861F31C0353607B681B6883
:1013A000DB6823F060417A68936861F31C03936003
:1013B0007B681B68DB6803F000535B0FDBB203F054
:1013C0000103D9B27A68D37A61F34513D3727B688B
:1013D0001B681B6803F070631B0EDAB27B681A731C
:1013E0007B681B681A697B681A617B681B685A698D
:1013F0007B685A617B681B68DB6903F004039B0808
:10140000BB757B681B68DB6903F00803DB087B7531
:10141000BB7D002B03D07B7D002B7FF463AF7B680B
:1014200000221A760023FB75FB7D18461C37BD464B
:101430005DF8047B704700BF0000FC1F80B483B0E0
:1014400000AF786039603B68B3F5800F06D07B68E9
:101450001A683B681A437B681A6005E07B689A69E2
:101460003B681A437B689A610C37BD465DF8047B84
:10147000704700BF80B483B000AF78607B684FF4E2
:101480008072DA600C37BD465DF8047B704700BFA0
:1014900080B582B000AF78607B68084A934203D180
:1014A0000420FFF7E5F806E07B68054A934202D185
:1014B0000820FFF7DDF80837BD4680BD00C00040BA
:1014C0000000014080B582B000AF78607B68084AB8
:1014D000934203D10420FFF717FA06E07B68054A20
:1014E000934202D10820FFF70FFA0837BD4680BDAE
:1014F00000C000400000014080B582B000AF7860BD
:101500001020FFF7F1F97868FFF7DCFF7868FFF744
:10151000BFFF0837BD4680BD80B584B000AF78609E
:101520000B46FB707868FFF7E7FF7868FFF7A2FFCC
:101530007B681B68FB60FB6823F44043FB60FB781F
:101540009B03FA681343FB607B68FA681A601037E4
:10155000BD4680BD80B483B000AF786039603B6821
:101560001A687B685A613B685B79C3F34013DBB24E
:101570001A057B685A603B681B79C3F30303DBB22F
:101580001A467B685A623B685B79C3F30303DBB29C
:101590001A467B681A623B685B79C3F30013DBB2BF
:1015A0001A467B689A613B681B79C3F30313DBB26D
:1015B0001A467B68DA620C37BD465DF8047B7047DB
:1015C00080B487B000AF78600B46FB701346BB70E9
:1015D0007B68D3F8A830FB60FB78092B2CD801A2DC
:1015E00052F823F00D1600080D1600081716000813
:1015F00017160008391600083916000839160008B1
:1016000039160008211600082D16000803233B6137
:1016100000237B6116E00C233B6102237B6111E018
:101620004FF440733B6108237B610BE04FF4406350
:101630003B610A237B6105E04FF440533B610C237F
:101640007B6100BF3B69DB43FA681340FB60BA78FB
:101650007B6902FA03F3FA681343FB607B68FA685C
:10166000C3F8A8201C37BD465DF8047B704700BF57
:1016700080B483B000AF78600B46FB701346BB703C
:101680007B685A6FFB785B00194603238B40DB4372
:101690001A407B685A677B685A6FBB78F9784900B3
:1016A0008B401A437B685A670C37BD465DF8047B54
:1016B000704700BF80B400AFBD465DF8047B704743
:1016C00080B483B000AF78600B46FB70FB780122DA
:1016D0009A407B68DA600C37BD465DF8047B704742
:1016E00080B483B000AF78607B689B6803F001032F
:1016F000002B14BF01230023DBB218460C37BD4674
:101700005DF8047B704700BF80B483B000AF7860A1
:101710007B680122DA600C37BD465DF8047B7047B8
:1017200080B483B000AF78607B6801221A610C3707
:10173000BD465DF8047B704780B483B000AF78602D
:101740007B6802221A610C37BD465DF8047B704746
:1017500080B483B000AF78600B467B807A887B686A
:101760005A630C37BD465DF8047B704780B483B084
:1017700000AF78600B467B807A887B68DA630C3731
:10178000BD465DF8047B704780B483B000AF7860DD
:1017900039607B683A681A610C37BD465DF8047B96
:1017A000704700BF80B483B000AF78600B46FB7019
:1017B0007B68D3F8A420FB78012101FA03F31A43D4
:1017C0007B68C3F8A4200C37BD465DF8047B7047E6
:1017D00080B584B000AF78600023FB737B6893F81A
:1017E000263083F00103DBB2002B09D07B6893F82D
:1017F0002130002B04D1786800F062F80346FB73B7
:10180000FB7B18461037BD4680BD00BF80B584B055
:1018100000AF78607B6893F82630002B0CD07B6893
:1018200093F82130002B04D17B685B691846FFF7E1
:101830006BFF0023FB7301E00123FB73FB7B184666
:101840001037BD4680BD00BF80B584B000AF786062
:10185000786800F01DF80346002B11D07B6893F8E0
:101860002630002B0CD07B6893F82130002B04D15C
:101870007B685B691846FFF753FF0023FB7301E0A9
:101880000123FB73FB7B18461037BD4680BD00BFAC
:1018900080B584B000AF78600023FB737B6893F859
:1018A0002130002B06D17B685B691846FFF718FFD3
:1018B0000346FB73FB7B18461037BD4680BD00BF57
:1018C00080B584B000AF78607B681B69184600F073
:1018D000BBFA0346FB737B681B699A687B681B7EB7
:1018E00010461946FFF7ECFE7B685A697B68DB6996
:1018F00010461946FFF72EFE786800F02DF87B6839
:1019000093F82530002B0FD07B685A697B6893F8D9
:101910002030104600211A46FFF752FE7B685B69B3
:1019200018460021FFF73EFF7B685B691846FFF70A
:1019300003FF7B68012283F826207B6893F824301C
:10194000002B04D07B685B691846FFF7DDFEFB7B4C
:1019500018461037BD4680BD80B582B000AF7860B4
:101960007B685A697B685B8C10461946FFF7F0FE6E
:101970007B685B6918460021FFF7F8FE7B681B69EE
:101980009A687B68DB6810461946FFF7FDFE08374A
:10199000BD4680BD80B483B000AF78600B46FB705D
:1019A000FB7801229A407B68DA600C37BD465DF80F
:1019B000047B704780B483B000AF78600B46FB7047
:1019C000FB7801229A407B689A600C37BD465DF82F
:1019D000047B704780B483B000AF78607B680122DD
:1019E000DA600C37BD465DF8047B704780B483B085
:1019F00000AF78607B6801221A610C37BD465DF844
:101A0000047B704780B483B000AF78607B680222AB
:101A10001A610C37BD465DF8047B704780B483B013
:101A200000AF78600B467B807A887B685A630C37FE
:101A3000BD465DF8047B704780B483B000AF78602A
:101A40000B467B807A887B68DA630C37BD465DF88D
:101A5000047B704780B483B000AF786039607B68E6
:101A60003A681A610C37BD465DF8047B704700BFC9
:101A700080B483B000AF78600B46FB707B68D3F80E
:101A8000A420FB78012101FA03F31A437B68C3F811
:101A9000A4200C37BD465DF8047B704780B584B048
:101AA00000AF78600123FB737B6893F82930022B29
:101AB0004DD17B681B68184600F0C6F90346FB73DE
:101AC000FB7B002B3FD17B689A687B68DB68104604
:101AD0001946FFF73FFD7B689A687B68DB699BB21C
:101AE00010461946FFF79AFF7B689A687B689B69E6
:101AF0009BB210461946FFF79FFF7B685A687B68C8
:101B00005B6A10461946FFF7A5FF786800F024F8D5
:101B10007B6819697B6893F82C207B685B690846B1
:101B200011461A46FEF73AFC7B68002283F829200A
:101B30007B6893F82F30002B02D0786800F09CF877
:101B40000023FB7303E07B68022283F82920FB7BE0
:101B500018461037BD4680BD80B582B000AF7860B2
:101B60007B6893F83030002B0FD07B689B68184659
:101B70000021FFF77DFF7B689A687B6893F82A3025
:101B8000104600211A46FFF71BFD7B6893F83130A1
:101B9000002B0FD07B689B6818460221FFF768FF77
:101BA0007B689A687B6893F82B30104602211A46AE
:101BB000FFF706FD0837BD4680BD00BF80B582B087
:101BC00000AF78607B6893F82930002B04D07B68E5
:101BD00093F82930042B11D17B685A687B6893F8FD
:101BE0002E3010461946FFF7D5FE7B689B681846D5
:101BF000FFF7F0FE7B68032283F829200837BD46F3
:101C000080BD00BF80B582B000AF78607B6893F87C
:101C10002930022B16D07B689B681846FFF7E6FE3A
:101C20007B689B681846FFF7EDFE7B685A687B6807
:101C300093F82E3010461946FFF7BCFE7B6804224D
:101C400083F829200837BD4680BD00BF80B584B029
:101C500000AF78600123FB737B6893F82830002B7A
:101C600004D17868FFF71AFF0346FB73FB7B184625
:101C70001037BD4680BD00BF80B582B000AF786030
:101C80007B6893F82830002B02D17868FFF796FF25
:101C90000837BD4680BD00BF80B582B000AF786018
:101CA0007B6893F82830002B02D17868FFF7AAFFF1
:101CB0000837BD4680BD00BF80B400AF044BDB6871
:101CC00003F4E0631B0A1846BD465DF8047B7047C9
:101CD00000ED00E080B483B000AF0346FB7197F9DC
:101CE0000730002B0BDB084997F907305B09FA79BD
:101CF00002F01F02012000FA02F241F823200C3703
:101D0000BD465DF8047B704700E100E080B483B01D
:101D100000AF03463960FB7197F90730002B0ADBEF
:101D20000D4997F907303A68D2B29200D2B20B440B
:101D300083F800230AE00949FB7903F00F03043B11
:101D40003A68D2B29200D2B20B441A760C37BD4632
:101D50005DF8047B704700BF00E100E000ED00E0AB
:101D600080B489B000AFF860B9607A60FB6803F0B6
:101D70000703FB61FB69C3F10703062B28BF06239A
:101D8000BB61FB690633062B02D9FB69013B00E00E
:101D900000237B61BB69012202FA03F35A1EBB6870
:101DA0001A407B699A407B69012101FA03F3591EAD
:101DB0007B680B40134318462437BD465DF8047B0F
:101DC000704700BF80B582B000AF78607B681B7839
:101DD0005BB21846FFF77EFF0837BD4680BD00BFE7
:101DE00090B583B000AF78607B681C78FFF764FF24
:101DF00001467B685B781A467B689B7808461146EB
:101E00001A46FFF7ADFF024663B218461146FFF7C8
:101E10007DFF7B68DB78002B02D07868FFF7D2FF6C
:101E2000002318460C37BD4690BD00BF80B483B078
:101E300000AF78607B684FF48072DA600C37BD4683
:101E40005DF8047B704700BF80B582B000AF78605A
:101E50007B685B7B83F00103DBB2002B0FD07B68D8
:101E60009A687B681B7B10461946FFF755FB7B6819
:101E70009B681846FFF7DAFF7B6801225A7300233C
:101E800018460837BD4680BD80B584B000AF786085
:101E90000023FB737B685B7A83F00103DBB2002BCA
:101EA0000DD07B685A687B681B68104601211A4672
:101EB000FFF7B2F87B6801225A720023FB73FB7BA9
:101EC00018461037BD4680BD80B582B000AF78603F
:101ED0007B6819687B681A7C7B6804330846114666
:101EE0001A46FEF75BFA7B6819687B681A7C7B6888
:101EF0005B7C084611461A46FFF7BAFB00231846DA
:101F00000837BD4680BD00BF80B485B000AF7860A3
:101F10007B6803F00703FB600C4BDB68BB60BA68AF
:101F20004FF6FF031340BB60FB681A02BB68134304
:101F300043F0BF6343F40033BB60044ABB68D36023
:101F40001437BD465DF8047B704700BF00ED00E02C
:101F500080B582B000AF0120FFF7D6FF72B6214BEB
:101F6000214A9A60BFF34F8F62B61E4A1D4BD3F8C9
:101F7000883043F47003C2F888301C4B03F580535B
:101F800014331B687B607B6823F00F037B607B68E6
:101F900043F002037B60154B03F5805314337A68DA
:101FA0001A60104A0F4B5B6923F0100353610D4A0E
:101FB0000C4B5B6923F0080353610A4A094B5B6AC7
:101FC00023F480335362074A064B5B6A23F40033E1
:101FD0005362044A034B5B6A23F48023536208373D
:101FE000BD4680BD00ED00E0000000080010005874
:101FF00080B485B000AF78600023FB737B6801225A
:102000001A70FB7B18461437BD465DF8047B704799
:1020100080B400AF024B1846BD465DF8047B7047A4
:10202000001BB700B0B586B000AF104B3C1D1D467D
:102030000FCD0FC42B6823603B1D1846FEF7A2FA94
:102040000020FEF79DFB0020FEF752FB0420FEF768
:1020500023FC01202021FEF773FC0020FEF75CFB2F
:102060000120FEF72DFC1837BD46B0BD5C380008D6
:1020700080B485B000AFF8600B467A60FB72FB68F5
:102080009A68FB7A072101FA03F3DB431A40FB7AD3
:10209000796801FA03F31A43FB689A601437BD4666
:1020A0005DF8047B704700BF80B483B000AF7860F8
:1020B0000B46FB707B68DB6823F00702FB7803F0BC
:1020C00007031A437B68DA600C37BD465DF8047B72
:1020D000704700BF80B483B000AF78607B68DB6876
:1020E00043F480727B68DA600C37BD465DF8047B90
:1020F000704700BF80B483B000AF78607B685B68D6
:1021000018460C37BD465DF8047B704780B483B039
:1021100000AF78607B681B6843F040027B681A6000
:102120000C37BD465DF8047B704700BF80B483B0B8
:1021300000AF78607B681B6823F040027B681A6000
:102140000C37BD465DF8047B704700BF80B483B098
:1021500000AF78607B681B6843F001027B681A60FF
:102160000C37BD465DF8047B704700BF80B483B078
:1021700000AF78607B681B6823F001027B681A60FF
:102180000C37BD465DF8047B704700BF80B483B058
:1021900000AF78607B681B6823F080027B681A6060
:1021A0000C37BD465DF8047B704700BF80B485B036
:1021B00000AFF8600B467A60FB72FB681B68FA6838
:1021C00012689168FA7A072000FA02F2D2431140AD
:1021D000FA7A786800FA02F20A439A601437BD4628
:1021E0005DF8047B704700BF80B483B000AF7860B7
:1021F0007B681B68DB6918460C37BD465DF8047BBD
:10220000704700BF80B483B000AF786039607B68EE
:102210001B687A68126811683A680A431A600C37BA
:10222000BD465DF8047B704780B582B000AF786032
:102230007B681B6818464FF40031FFF7E3FF08374F
:10224000BD4680BD80B582B000AF78607B681B68FA
:1022500018464FF48031FFF7D5FF0837BD4680BDE3
:1022600080B584B000AF78600023FB60786800F030
:1022700031F87B6893F8A430002B03D0FB6843F05F
:102280000203FB607B6893F8A330002B03D0FB684C
:1022900043F00403FB607B6893F8A530002B03D068
:1022A000FB6843F00803FB607B685B681846F968CD
:1022B000FFF7C4F87B6893F8A630002B06D07B6844
:1022C0005B6818464FF48001FFF7B8F81037BD4639
:1022D00080BD00BF80B582B000AF78607B685A686F
:1022E0007B68D3F88C301B78104600211A46FFF724
:1022F000BFFE7B685A687B68D3F88C305B781046E9
:1023000004211A46FFF7B4FE7B685A687B68D3F84D
:102310008C309B78104608211A46FFF7A9FE7B688F
:102320005A687B68D3F88C30DB7810460C211A464B
:10233000FFF79EFE0837BD4680BD00BF80B582B066
:1023400000AF78607B681B681846FEF7A5FE7B68C7
:10235000DB79002B0BD07B681A687B685B791046B1
:1023600004211A46FFF722FF7868FFF75DFF7B68BC
:102370001B7A002B0BD07B681A687B689B79104610
:1023800000211A46FFF712FF7868FFF75BFF083756
:10239000BD4680BD80B584B000AF78600023FB737C
:1023A0007B681B681846FEF74BFF0346FB73FB7BFD
:1023B00018461037BD4680BD80B584B000AF786048
:1023C0000023FB737B681B681846FEF767FF034614
:1023D000FB73FB7B18461037BD4680BD80B584B0CB
:1023E00000AF78607B681B681846FFF7FDFEF86059
:1023F000FB6818461037BD4680BD00BF80B584B06D
:1024000000AF78607B685B68FB60F868FFF772FE7E
:10241000B860BB6818461037BD4680BD80B586B031
:1024200000AF78600023FB757B68D3F89030FB60C9
:102430007B681B681846FFF727FD0346FB75FB7D8D
:10244000002B40F087807B685A687B689B68104649
:102450001946FEF7E9FC0346002B78D17B685B68E0
:102460001846FFF753FE7B685B681846FFF76EFE61
:102470007B685B681846FFF789FE7B6893F8A73096
:10248000002B05D07B685B681846FFF723FE18E039
:102490007B68D3F8983019687B68D3F898301A793C
:1024A0007B68D3F89C30084611461A46FDF776FF44
:1024B0007B685A687B6893F8A03010461946FFF78E
:1024C000F3FD7868FFF7CCFE00233B6119E07A68E2
:1024D0003B6902339B0013445B68BB607B681B68ED
:1024E00059687B6893F8A120BB681B7908461146A0
:1024F0001A46FEF73FFDB868FFF720FF3B6901333E
:102500003B617B6893F8A2301A463B699A42DED859
:102510007B685B681846FFF709FE7B685B681846B6
:10252000FFF724FE7B6893F8A73083F00103DBB24A
:10253000002B11D0FB681968FB681A797B68D3F807
:102540009430084611461A46FDF728FF04E001239F
:10255000FB7501E00123FB75FB7D18461837BD466E
:1025600080BD00BF80B582B000AF0023FB7135484D
:10257000FFF73EFD0346FB71FB79002B04D1324887
:10258000FFF7A2FC0346FB71FB79002B04D12F4817
:10259000FFF79AFC0346FB71FB79002B04D12C4812
:1025A000FFF73CFF0346FB71FB79002B04D1294860
:1025B000FFF716FC0346FB71FB79002B04D126487C
:1025C000FFF744FB0346FB71FB79002B04D1234842
:1025D000FFF77AFC0346FB71FB79002B04D12048FE
:1025E000FFF772FC0346FB71FB79002B04D11D48F9
:1025F000FFF76AFC0346FB71FB79002B04D11A48F4
:10260000FFF762FC0346FB71FB79002B04D11748EE
:10261000FFF75AFC0346FB71FB79002B04D11448E9
:10262000FFF7D6F80346FB71FB79002B04D1114864
:10263000FFF7D6FB0346FB71FB7918460837BD460A
:1026400080BD00BFDCC8FF1FD0370008E43700089A
:10265000B4380008C837000830C8FF1FF837000832
:102660000C380008203800083438000848380008C2
:1026700008C8FF1FCC37000880B483B000AF786073
:102680000B46FB70FB7801229A407B685A600C373E
:10269000BD465DF8047B704780B483B000AF7860BE
:1026A0000B46FB70FB784FF480329A407B685A608F
:1026B0000C37BD465DF8047B704700BF80B483B023
:1026C00000AF78600B46FB70FB784FF001129A4028
:1026D0007B685A600C37BD465DF8047B704700BFCD
:1026E00080B483B000AF78600B46FB707B685A6A99
:1026F000FB7822FA03F303F0010318460C37BD46BA
:102700005DF8047B704700BF80B582B000AF786091
:102710007B681A687B681B7C10461946FFF7ACFF84
:102720000837BD4680BD00BF80B582B000AF78607D
:102730007B681A687B681B7C10461946FFF7ACFF64
:102740000837BD4680BD00BF80B582B000AF78605D
:102750007B681A687B681B7C10461946FFF7AEFF42
:102760000837BD4680BD00BF80B582B000AF78603D
:102770007B681A687B681B7C10461946FFF7B0FF20
:10278000034618460837BD4680BD00BF80B588B0F7
:1027900000AF5748FFF732FE034603F00703002B54
:1027A00040F0A3805348FFF719FE034603F00103EE
:1027B000002B00F09A804F48FFF7FEFD4D4B1B6841
:1027C0001B8AFB614C4B1B68FA699A4240F08D8072
:1027D000484B1B685B8ABB614848FFF7B5FFBB6984
:1027E000B3F53C7F54D1434B1B689B8A7B617B696B
:1027F000434A82FB03129210DB17D31A7B6178697C
:1028000000F006FA38613B69002B1AD13D4B1B687A
:10281000394A126892B21A823A4B1B6802225A82D3
:10282000384B1B6801229A82364B1B681846FEF70C
:10283000CFFC0346FB603348FFF7ACFD0346FB606B
:1028400025E03B69012B22D12F4B1A6813469B00D0
:1028500013445B00BB602B4B1B68274A126892B283
:102860001A82284B1B6804225A82264B1B68BA68BE
:1028700092B29A82234B1B681846FEF7A9FC0346C6
:10288000FB602048FFF786FD0346FB602DE02CE04F
:10289000BB69022B03D11D4B01221A6025E0BB69E5
:1028A000B3F5797F21D1184B1A6813469B00134466
:1028B0005B007B60134B1B680F4A126892B21A824E
:1028C000104B1B6804225A820E4B1B687A6892B226
:1028D0009A820C4B1B681846FEF77AFC0346FB6095
:1028E0000848FFF757FD0346FB602037BD4680BD13
:1028F000B43800089C380008D8C8FF1FD03700083B
:1029000067666666A8380008ECC8FF1FE0C8FF1FAE
:1029100080B400AF044B1B680133034A1360BD460B
:102920005DF8047B704700BFE8C8FF1F80B500AFAB
:10293000FFF718FE00F006F800F026F800F036FA6F
:10294000FCE700BF80B582B000AF0C4B1B680C4A9F
:10295000126892B21A82094B1B6805225A82074BF1
:102960001B681846FEF734FC03467B600348FFF7FC
:1029700011FD03467B600837BD4680BDA8380008BE
:10298000D8C8FF1F0000000080B582B000AF00F083
:10299000EFF978607B68002B27D19548FEF736FF6A
:1029A00005E09448FFF768F99348FFF7BDFE00F093
:1029B000C1F90346012BF4D08E48FFF76DF98C481E
:1029C000FEF742FF8D4B1B688D4A136005E0894876
:1029D000FFF752F98848FFF797FE00F0C9F9034660
:1029E000012BF4D08348FFF757F9864B00221A6079
:1029F000824B00221A60844B00221A60804B1B68B5
:102A0000184600F011FC02460B461046194668A312
:102A1000D3E9002300F06EFC02460B46104619462F
:102A200000F07AFE0246784B5A60754B1B681846D8
:102A300000F0FAFB02460B46104619465EA3D3E9A6
:102A4000002300F057FC02460B461046194600F0E2
:102A500063FE02466C4B9A60694B1B68184600F097
:102A6000E3FB02460B461046194655A3D3E9002363
:102A700000F040FC02460B461046194600F04CFEA2
:102A80000246614BDA605E4B1B68184600F0CCFBD7
:102A900002460B46104619464BA3D3E9002300F02B
:102AA00029FC02460B461046194600F035FE024648
:102AB000554B1A61524B1B68184600F0B5FB024695
:102AC0000B46104619464FF00002504B00F012FC26
:102AD00002460B461046194600F01EFE02464A4BBF
:102AE0005A61474B1B68184600F09EFB02460B4696
:102AF0001046194636A3D3E9002300F0FBFB02463B
:102B00000B461046194600F007FE02463E4B9A61FE
:102B10003B4B1B68184600F087FB02460B461046ED
:102B200019462DA3D3E9002300F0E4FB02460B462F
:102B30001046194600F0F0FD0246334BDA61304B87
:102B40001B68184600F070FB02460B4610461946FB
:102B500023A3D3E9002300F0CDFB02460B46104629
:102B6000194600F0D9FD0246274B1A62244B1B6818
:102B7000184600F059FB02460B46104619461AA3A8
:102B8000D3E9002300F0B6FB02460B461046194677
:102B900000F0C2FD02461C4B5A62194B1B681A4AD0
:102BA0009362012318460837BD4680BDAFF300800D
:102BB0009A9999999999B93F9A9999999999C93FE7
:102BC000333333333333D33F9A9999999999D93F12
:102BD000333333333333E33F666666666666E63F18
:102BE0009A9999999999E93FCDCCCCCCCCCCEC3F32
:102BF00008C8FF1F30C8FF1F48380008E8C8FF1F7B
:102C0000E4C8FF1FECC8FF1FF0C8FF1F0000E03F33
:102C100080B586B000AF78603E48FFF7A5FD03465B
:102C20007B613D48FFF7A0FD03463B617B69002BBC
:102C300002D03B69002B01D1002367E07B68FB6079
:102C4000FB68002B02DBFB680A2B01DD00235DE043
:102C5000324AFB6852F82320314B1B682F4951F848
:102C60002330D31ABB60BB68002B20DD2D48FEF754
:102C7000CDFD05E02C48FEF7FFFF2C48FFF754FD83
:102C80002B4B1A68BB689A4204DA00F053F80346EB
:102C9000012BEFD02448FEF7FFFF2248FEF7D4FDBA
:102CA000234B00221A601E4AFB6813602DE0BB68AC
:102CB000002B25DABB68002BB8BF5B42BB6019480C
:102CC000FEF7A4FD05E01848FEF7D6FF1748FFF70A
:102CD0001BFD174B1A68BB689A4204DA00F048F8EB
:102CE0000346012BEFD01048FEF7D6FF0D48FEF744
:102CF000ABFD0F4B00221A60094AFB68136004E029
:102D0000BB68002B01D0002300E0012318461837D0
:102D1000BD4680BD3438000820380008F0C8FF1FC9
:102D2000ECC8FF1F08C8FF1F30C8FF1F4838000845
:102D3000E8C8FF1F80B582B000AF0A48FFF714FD56
:102D400003467B607A68084B1B689A4204D00748A8
:102D5000FFF7DAFC002300E0012318460837BD46E0
:102D600080BD00BF0C380008D0C8FF1FD037000856
:102D700080B582B000AF0A48FFF7F6FC03467B60DF
:102D80007A68084B1B689A4204D00748FFF7CCFCCE
:102D9000002300E0012318460837BD4680BD00BF70
:102DA000F8370008D4C8FF1FD037000880B586B0B8
:102DB00000AF6A48FFF7D8FC03467B616848FFF71D
:102DC000D3FC03463B617B69002B5ED133E0654B4E
:102DD0001B680133644A52F82320624B1B68624926
:102DE00051F82330D31AFB606048FEF70FFD05E071
:102DF0005F48FEF741FF5F48FFF796FC5E4B1A689D
:102E0000FB689A4204DAFFF795FF0346012BEFD0E7
:102E10005748FEF741FF5548FEF716FD514B1B681A
:102E20000133504A1360544B00221A604B48FFF79D
:102E30009BFC03467B617B69002B03D1494B1B68DC
:102E40000A2BC4D1474B1A6813469B0013445B00FE
:102E5000BB604A4B1B684A4A126892B21A82474BBF
:102E60001B6804225A82454B1B68BA6892B29A8248
:102E7000424B1B681846FEF7ABF903467B603F48A0
:102E8000FFF788FA03467B6065E03B69002B62D15F
:102E900038E0344B1B68013B334A52F82320314B56
:102EA0001B68314951F82330D31AFB60FB68002BB3
:102EB000B8BF5B42FB602D48FEF7A8FC05E02C483C
:102EC000FEF7DAFE2B48FFF71FFC2B4B1A68FB6856
:102ED0009A4204DAFFF74CFF0346012BEFD0244857
:102EE000FEF7DAFE2148FEF7AFFC1E4B1B68013BE4
:102EF0001C4A1360204B00221A601948FFF734FC6B
:102F000003463B613B69002B03D1164B1B68002B2A
:102F1000BFD1144B1A6813469B0013445B003B60FF
:102F2000164B1B68164A126892B21A82134B1B6822
:102F300004225A82114B1B683A6892B29A820F4B54
:102F40001B681846FEF744F903467B600B48FFF701
:102F500021FA03467B601837BD4680BD343800082F
:102F600020380008ECC8FF1FF0C8FF1F08C8FF1F6B
:102F700030C8FF1F48380008E8C8FF1FA8380008FD
:102F8000D8C8FF1F81F0004102E000BF83F000437A
:102F900030B54FEA41044FEA430594EA050F08BFF4
:102FA00090EA020F1FBF54EA000C55EA020C7FEAB8
:102FB000645C7FEA655C00F0E2804FEA5454D4EB35
:102FC0005555B8BF6D420CDD2C4480EA020281EAFF
:102FD000030382EA000083EA010180EA020281EA37
:102FE0000303362D88BF30BD11F0004F4FEA013189
:102FF0004FF4801C4CEA113102D0404261EB410198
:1030000013F0004F4FEA03334CEA133302D052421D
:1030100063EB430394EA050F00F0A780A4F10104D9
:10302000D5F1200E0DDB02FA0EFC22FA05F2801813
:1030300041F1000103FA0EF2801843FA05F35941F9
:103040000EE0A5F120050EF1200E012A03FA0EFC78
:1030500028BF4CF0020C43FA05F3C01851EBE371A2
:1030600001F0004507D54FF0000EDCF1000C7EEBBF
:1030700000006EEB0101B1F5801F1BD3B1F5001FFD
:103080000CD349085FEA30004FEA3C0C04F101041C
:103090004FEA445212F5800F80F09A80BCF1004F45
:1030A00008BF5FEA500C50F1000041EB045141EAC7
:1030B000050130BD5FEA4C0C404141EB010111F4C8
:1030C000801FA4F10104E9D191F0000F04BF014673
:1030D0000020B1FA81F308BF2033A3F10B03B3F151
:1030E00020020CDA0C3208DD02F1140CC2F10C02E1
:1030F00001FA0CF021FA02F10CE002F11402D8BF3F
:10310000C2F1200C01FA02F120FA0CFCDCBF41EA0A
:103110000C019040E41AA2BF01EB0451294330BDD9
:103120006FEA04041F3C1CDA0C340EDC04F11404B6
:10313000C4F1200220FA04F001FA02F340EA03008D
:1031400021FA04F345EA030130BDC4F10C04C4F1D3
:10315000200220FA02F001FA04F340EA03002946B3
:1031600030BD21FA04F0294630BD94F0000F83F4FD
:10317000801306BF81F480110134013D4EE77FEAE0
:10318000645C18BF7FEA655C29D094EA050F08BF2C
:1031900090EA020F05D054EA000C04BF194610460D
:1031A00030BD91EA030F1EBF0021002030BD5FEA51
:1031B000545C05D14000494128BF41F0004130BD79
:1031C00014F580043CBF01F5801130BD01F00045CD
:1031D00045F0FE4141F470014FF0000030BD7FEA40
:1031E000645C1ABF194610467FEA655C1CBF0B463B
:1031F000024650EA013406BF52EA033591EA030F52
:1032000041F4002130BD00BF90F0000F04BF002149
:10321000704730B54FF4806404F132044FF000057C
:103220004FF0000150E700BF90F0000F04BF0021F5
:10323000704730B54FF4806404F1320410F000455B
:1032400048BF40424FF000013EE700BF42004FEA56
:10325000E2014FEA31014FEA02701FBF12F07F43D3
:1032600093F07F4F81F06051704792F0000F14BFD0
:1032700093F07F4F704730B54FF4607401F0004514
:1032800021F0004120E700BF50EA010208BF70476B
:1032900030B54FF000050AE050EA010208BF704760
:1032A00030B511F0004502D5404261EB41014FF4C9
:1032B000806404F132045FEA915C3FF4DCAE4FF0CD
:1032C00003025FEADC0C18BF03325FEADC0C18BFB4
:1032D000033202EBDC02C2F1200300FA03FC20FA05
:1032E00002F001FA03FE40EA0E0021FA02F1144452
:1032F000C1E600BF70B54FF0FF0C4CF4E06C1CEA67
:1033000011541DBF1CEA135594EA0C0F95EA0C0FDB
:1033100000F0DEF82C4481EA030621EA4C5123EA4E
:103320004C5350EA013518BF52EA033541F480117D
:1033300043F4801338D0A0FB02CE4FF00005E1FB30
:1033400002E506F00042E0FB03E54FF00006E1FB7A
:1033500003569CF0000F18BF4EF0010EA4F1FF04BD
:10336000B6F5007F64F5407404D25FEA4E0E6D41FD
:1033700046EB060642EAC62141EA55514FEAC5200E
:1033800040EA5E504FEACE2EB4F1FD0C88BFBCF58A
:10339000E06F1ED8BEF1004F08BF5FEA500E50F13B
:1033A000000041EB045170BD06F0004646EA010101
:1033B00040EA020081EA0301B4EB5C04C2BFD4EB33
:1033C0000C0541EA045170BD41F480114FF0000E2C
:1033D000013C00F3AB8014F1360FDEBF002001F09A
:1033E000004170BDC4F10004203C35DA0C341BDC14
:1033F00004F11404C4F1200500FA05F320FA04F0E6
:1034000001FA05F240EA020001F0004221F0004119
:1034100010EBD37021FA04F642EB06015EEA430E8C
:1034200008BF20EAD37070BDC4F10C04C4F12005BC
:1034300000FA04F320FA05F001FA04F240EA02006F
:1034400001F0004110EBD37041F100015EEA430E40
:1034500008BF20EAD37070BDC4F1200500FA05F260
:103460004EEA020E20FA04F301FA05F243EA0203DF
:1034700021FA04F001F0004121FA04F220EA0200EE
:1034800000EBD3705EEA430E08BF20EAD37070BD34
:1034900094F0000F0FD101F00046400041EB010114
:1034A00011F4801F08BF013CF7D041EA060195F0F6
:1034B000000F18BF704703F00046520043EB0303B0
:1034C00013F4801F08BF013DF7D043EA060370479D
:1034D00094EA0C0F0CEA135518BF95EA0C0F0CD0A8
:1034E00050EA410618BF52EA4306D1D181EA0301EE
:1034F00001F000414FF0000070BD50EA410606BFE8
:103500001046194652EA430619D094EA0C0F02D12C
:1035100050EA013613D195EA0C0F05D152EA033671
:103520001CBF104619460AD181EA030101F000418F
:1035300041F0FE4141F470014FF0000070BD41F0D8
:10354000FE4141F4780170BD70B54FF0FF0C4CF4B2
:10355000E06C1CEA11541DBF1CEA135594EA0C0FD1
:1035600095EA0C0F00F0A7F8A4EB050481EA030E1E
:1035700052EA03354FEA013100F088804FEA033305
:103580004FF0805545EA131343EA12634FEA0222D3
:1035900045EA111545EA10654FEA00260EF0004194
:1035A0009D4208BF964244F1FD0404F5407402D2E6
:1035B0005B084FEA3202B61A65EB03055B084FEA77
:1035C00032024FF480104FF4002CB6EB020E75EB74
:1035D000030E22BFB61A754640EA0C005B084FEA9C
:1035E0003202B6EB020E75EB030E22BFB61A754619
:1035F00040EA5C005B084FEA3202B6EB020E75EB64
:10360000030E22BFB61A754640EA9C005B084FEADB
:103610003202B6EB020E75EB030E22BFB61A7546E8
:1036200040EADC0055EA060E18D04FEA051545EAD7
:1036300016754FEA06164FEAC30343EA52734FEA80
:10364000C2025FEA1C1CC0D111F4801F0BD141EAF9
:1036500000014FF000004FF0004CB6E711F4801F5E
:1036600004BF01430020B4F1FD0C88BFBCF5E06F3E
:103670003FF6AFAEB5EB030C04BFB6EB020C5FEA4E
:10368000500C50F1000041EB045170BD0EF0004EA3
:103690004EEA113114EB5C04C2BFD4EB0C0541EAD5
:1036A000045170BD41F480114FF0000E013C90E6D2
:1036B00045EA060E8DE60CEA135594EA0C0F08BF96
:1036C00095EA0C0F3FF43BAF94EA0C0F0AD150EA95
:1036D00001347FF434AF95EA0C0F7FF425AF104628
:1036E00019462CE795EA0C0F06D152EA03353FF450
:1036F000FDAE1046194622E750EA410618BF52EACD
:1037000043067FF4C5AE50EA41047FF40DAF52EAA0
:1037100043057FF4EBAE12E74FEA410212F50012C7
:1037200015D211D56FF47873B3EB625212D94FEA08
:10373000C12343F0004343EA505311F0004F23FAF2
:1037400002F018BF404270474FF00000704750EA47
:10375000013005D111F0004008BF6FF00040704704
:103760004FF00000704700BF70B50E4B0E4CE41ACE
:10377000A41000251E46A54204D056F825309847CF
:103780000135F8E7FDF796FF084C094BE41AA41041
:1037900000251E46A54204D056F82530984701352D
:1037A000F8E770BDDCC8FF1FDCC8FF1FDCC8FF1FC7
:1037B000DCC8FF1F000000000400000098000000AB
:1037C00000000100040000004D3F00013101000134
:1037D000008002488000000000000100000000009E
:1037E000010000000081024800000000000000000D
:1037F000000000000F0000000082024810000000DE
:1038000000000000000000000900000000820248E3
:103810001000000000000000000000000300000095
:1038200000810248100000000000000000000000BD
:1038300007000000008102481000000000000000A6
:103840000000000009000000008102488000000024
:10385000000001000000000000000000500304010F
:103860000000010000000000000001000101010152
:1038700000820248000000008800000001000000F3
:1038800002000000008E024803000000000000005B
:1038900000000000000000000000000090C8FF1FB2
:1038A0002300010001000000B0C8FF1F220000003B
:1038B0000000000074C8FF1F0042014880C8FF1FBD
:1038C0009C380008A8380008000000000000000034
:1038D00000000000000000000000000000000000E8
:1038E00000000000000000000000000000000000D8
:1038F00000000000000000000000000000000000C8
:1039000000000000000000000000000000000000B7
:1039100000000000000000000000000000000000A7
:103920000000000000000000000000000000000097
:103930000000000000000000000000000000000087
:103940009838000870380008783800088438000873
:0C3950008C38000801000200000000009C
:10395C000000000001000000A08601000060FF9F35
:10396C000A0000005000000064C8FF1F0002014064
:10397C000100000000C8FF1F01003F9C0001000077
:10398C0064C8FF1F0000014000040140B437000868
:10399C0000820248BC370008A86100004FC3000039
:1039AC008813000000500000000200000201030018
:1039BC000000000000B4C40402000000000001403C
:1039CC000000000000B4C4040040014800000000E6
:1039DC0000B4C404A0860100401F010000000000D8
:1039EC0060540148FF070080FF070020080000001A
:1039FC0000000000000000000000000000000000BB
:103A0C0040540148FF070080FF0700200800000019
:103A1C000000000000000000010000000000000099
:0C3A2C00010000000100000098020000F2
:0400000508000201EC
:00000001FF
